{
  "contractName": "AgriculturalMarketplace",
  "abi": [
    {
      "anonymous": false,
      "inputs": [
        {
          "indexed": false,
          "internalType": "uint256",
          "name": "productId",
          "type": "uint256"
        },
        {
          "indexed": false,
          "internalType": "uint256",
          "name": "newPrice",
          "type": "uint256"
        }
      ],
      "name": "PriceUpdated",
      "type": "event"
    },
    {
      "anonymous": false,
      "inputs": [
        {
          "indexed": false,
          "internalType": "uint256",
          "name": "productId",
          "type": "uint256"
        },
        {
          "indexed": false,
          "internalType": "string",
          "name": "name",
          "type": "string"
        },
        {
          "indexed": false,
          "internalType": "address",
          "name": "farmer",
          "type": "address"
        },
        {
          "indexed": false,
          "internalType": "uint256",
          "name": "quantity",
          "type": "uint256"
        }
      ],
      "name": "ProductRegistered",
      "type": "event"
    },
    {
      "anonymous": false,
      "inputs": [
        {
          "indexed": false,
          "internalType": "uint256",
          "name": "productId",
          "type": "uint256"
        },
        {
          "indexed": false,
          "internalType": "address",
          "name": "buyer",
          "type": "address"
        },
        {
          "indexed": false,
          "internalType": "uint256",
          "name": "quantity",
          "type": "uint256"
        },
        {
          "indexed": false,
          "internalType": "uint256",
          "name": "totalPrice",
          "type": "uint256"
        }
      ],
      "name": "ProductSold",
      "type": "event"
    },
    {
      "anonymous": false,
      "inputs": [
        {
          "indexed": false,
          "internalType": "uint256",
          "name": "productId",
          "type": "uint256"
        },
        {
          "indexed": false,
          "internalType": "uint256",
          "name": "newQuantity",
          "type": "uint256"
        }
      ],
      "name": "StockUpdated",
      "type": "event"
    },
    {
      "anonymous": false,
      "inputs": [
        {
          "indexed": false,
          "internalType": "address",
          "name": "userAddress",
          "type": "address"
        },
        {
          "indexed": false,
          "internalType": "string",
          "name": "name",
          "type": "string"
        },
        {
          "indexed": false,
          "internalType": "string",
          "name": "role",
          "type": "string"
        }
      ],
      "name": "UserRegistered",
      "type": "event"
    },
    {
      "inputs": [
        {
          "internalType": "address",
          "name": "",
          "type": "address"
        },
        {
          "internalType": "uint256",
          "name": "",
          "type": "uint256"
        }
      ],
      "name": "farmerProducts",
      "outputs": [
        {
          "internalType": "uint256",
          "name": "",
          "type": "uint256"
        }
      ],
      "stateMutability": "view",
      "type": "function",
      "constant": true
    },
    {
      "inputs": [],
      "name": "productCount",
      "outputs": [
        {
          "internalType": "uint256",
          "name": "",
          "type": "uint256"
        }
      ],
      "stateMutability": "view",
      "type": "function",
      "constant": true
    },
    {
      "inputs": [
        {
          "internalType": "uint256",
          "name": "",
          "type": "uint256"
        }
      ],
      "name": "products",
      "outputs": [
        {
          "internalType": "uint256",
          "name": "id",
          "type": "uint256"
        },
        {
          "internalType": "string",
          "name": "name",
          "type": "string"
        },
        {
          "internalType": "string",
          "name": "productType",
          "type": "string"
        },
        {
          "internalType": "uint256",
          "name": "harvestDate",
          "type": "uint256"
        },
        {
          "internalType": "string",
          "name": "region",
          "type": "string"
        },
        {
          "internalType": "string",
          "name": "farmName",
          "type": "string"
        },
        {
          "internalType": "address",
          "name": "farmer",
          "type": "address"
        },
        {
          "internalType": "address",
          "name": "owner",
          "type": "address"
        },
        {
          "internalType": "uint256",
          "name": "price",
          "type": "uint256"
        },
        {
          "internalType": "bool",
          "name": "isOrganic",
          "type": "bool"
        },
        {
          "internalType": "bool",
          "name": "isSold",
          "type": "bool"
        },
        {
          "internalType": "uint256",
          "name": "createdAt",
          "type": "uint256"
        },
        {
          "internalType": "uint256",
          "name": "quantity",
          "type": "uint256"
        },
        {
          "internalType": "string",
          "name": "unit",
          "type": "string"
        }
      ],
      "stateMutability": "view",
      "type": "function",
      "constant": true
    },
    {
      "inputs": [],
      "name": "userCount",
      "outputs": [
        {
          "internalType": "uint256",
          "name": "",
          "type": "uint256"
        }
      ],
      "stateMutability": "view",
      "type": "function",
      "constant": true
    },
    {
      "inputs": [
        {
          "internalType": "address",
          "name": "",
          "type": "address"
        },
        {
          "internalType": "uint256",
          "name": "",
          "type": "uint256"
        }
      ],
      "name": "userPurchases",
      "outputs": [
        {
          "internalType": "uint256",
          "name": "productId",
          "type": "uint256"
        },
        {
          "internalType": "uint256",
          "name": "quantity",
          "type": "uint256"
        },
        {
          "internalType": "uint256",
          "name": "totalPrice",
          "type": "uint256"
        },
        {
          "internalType": "uint256",
          "name": "timestamp",
          "type": "uint256"
        }
      ],
      "stateMutability": "view",
      "type": "function",
      "constant": true
    },
    {
      "inputs": [
        {
          "internalType": "address",
          "name": "",
          "type": "address"
        }
      ],
      "name": "users",
      "outputs": [
        {
          "internalType": "address",
          "name": "walletAddress",
          "type": "address"
        },
        {
          "internalType": "string",
          "name": "name",
          "type": "string"
        },
        {
          "internalType": "string",
          "name": "role",
          "type": "string"
        },
        {
          "internalType": "uint256",
          "name": "joinDate",
          "type": "uint256"
        },
        {
          "internalType": "bool",
          "name": "isRegistered",
          "type": "bool"
        }
      ],
      "stateMutability": "view",
      "type": "function",
      "constant": true
    },
    {
      "inputs": [
        {
          "internalType": "string",
          "name": "_name",
          "type": "string"
        },
        {
          "internalType": "string",
          "name": "_role",
          "type": "string"
        }
      ],
      "name": "registerUser",
      "outputs": [],
      "stateMutability": "nonpayable",
      "type": "function"
    },
    {
      "inputs": [
        {
          "internalType": "string",
          "name": "_name",
          "type": "string"
        },
        {
          "internalType": "string",
          "name": "_productType",
          "type": "string"
        },
        {
          "internalType": "uint256",
          "name": "_harvestDate",
          "type": "uint256"
        },
        {
          "internalType": "string",
          "name": "_region",
          "type": "string"
        },
        {
          "internalType": "string",
          "name": "_farmName",
          "type": "string"
        },
        {
          "internalType": "uint256",
          "name": "_pricePerUnit",
          "type": "uint256"
        },
        {
          "internalType": "bool",
          "name": "_isOrganic",
          "type": "bool"
        },
        {
          "internalType": "uint256",
          "name": "_quantity",
          "type": "uint256"
        },
        {
          "internalType": "string",
          "name": "_unit",
          "type": "string"
        }
      ],
      "name": "registerProduct",
      "outputs": [],
      "stateMutability": "nonpayable",
      "type": "function"
    },
    {
      "inputs": [
        {
          "internalType": "uint256",
          "name": "_productId",
          "type": "uint256"
        },
        {
          "internalType": "uint256",
          "name": "_quantityToBuy",
          "type": "uint256"
        }
      ],
      "name": "buyProduct",
      "outputs": [],
      "stateMutability": "payable",
      "type": "function",
      "payable": true
    },
    {
      "inputs": [
        {
          "internalType": "uint256",
          "name": "_productId",
          "type": "uint256"
        },
        {
          "internalType": "uint256",
          "name": "_addedQuantity",
          "type": "uint256"
        }
      ],
      "name": "restockProduct",
      "outputs": [],
      "stateMutability": "nonpayable",
      "type": "function"
    },
    {
      "inputs": [
        {
          "internalType": "uint256",
          "name": "_productId",
          "type": "uint256"
        },
        {
          "internalType": "uint256",
          "name": "_newPrice",
          "type": "uint256"
        }
      ],
      "name": "updateProductPrice",
      "outputs": [],
      "stateMutability": "nonpayable",
      "type": "function"
    },
    {
      "inputs": [
        {
          "internalType": "uint256",
          "name": "_productId",
          "type": "uint256"
        }
      ],
      "name": "getProduct",
      "outputs": [
        {
          "components": [
            {
              "internalType": "uint256",
              "name": "id",
              "type": "uint256"
            },
            {
              "internalType": "string",
              "name": "name",
              "type": "string"
            },
            {
              "internalType": "string",
              "name": "productType",
              "type": "string"
            },
            {
              "internalType": "uint256",
              "name": "harvestDate",
              "type": "uint256"
            },
            {
              "internalType": "string",
              "name": "region",
              "type": "string"
            },
            {
              "internalType": "string",
              "name": "farmName",
              "type": "string"
            },
            {
              "internalType": "address",
              "name": "farmer",
              "type": "address"
            },
            {
              "internalType": "address",
              "name": "owner",
              "type": "address"
            },
            {
              "internalType": "uint256",
              "name": "price",
              "type": "uint256"
            },
            {
              "internalType": "bool",
              "name": "isOrganic",
              "type": "bool"
            },
            {
              "internalType": "bool",
              "name": "isSold",
              "type": "bool"
            },
            {
              "internalType": "uint256",
              "name": "createdAt",
              "type": "uint256"
            },
            {
              "internalType": "uint256",
              "name": "quantity",
              "type": "uint256"
            },
            {
              "internalType": "string",
              "name": "unit",
              "type": "string"
            }
          ],
          "internalType": "struct AgriculturalMarketplace.Product",
          "name": "",
          "type": "tuple"
        }
      ],
      "stateMutability": "view",
      "type": "function",
      "constant": true
    },
    {
      "inputs": [
        {
          "internalType": "address",
          "name": "_farmer",
          "type": "address"
        }
      ],
      "name": "getFarmerProducts",
      "outputs": [
        {
          "internalType": "uint256[]",
          "name": "",
          "type": "uint256[]"
        }
      ],
      "stateMutability": "view",
      "type": "function",
      "constant": true
    },
    {
      "inputs": [
        {
          "internalType": "address",
          "name": "_user",
          "type": "address"
        }
      ],
      "name": "getUserPurchases",
      "outputs": [
        {
          "components": [
            {
              "internalType": "uint256",
              "name": "productId",
              "type": "uint256"
            },
            {
              "internalType": "uint256",
              "name": "quantity",
              "type": "uint256"
            },
            {
              "internalType": "uint256",
              "name": "totalPrice",
              "type": "uint256"
            },
            {
              "internalType": "uint256",
              "name": "timestamp",
              "type": "uint256"
            }
          ],
          "internalType": "struct AgriculturalMarketplace.Purchase[]",
          "name": "",
          "type": "tuple[]"
        }
      ],
      "stateMutability": "view",
      "type": "function",
      "constant": true
    },
    {
      "inputs": [
        {
          "internalType": "address",
          "name": "_user",
          "type": "address"
        }
      ],
      "name": "isUserRegistered",
      "outputs": [
        {
          "internalType": "bool",
          "name": "",
          "type": "bool"
        }
      ],
      "stateMutability": "view",
      "type": "function",
      "constant": true
    },
    {
      "inputs": [
        {
          "internalType": "address",
          "name": "_user",
          "type": "address"
        }
      ],
      "name": "getUserInfo",
      "outputs": [
        {
          "internalType": "string",
          "name": "",
          "type": "string"
        },
        {
          "internalType": "string",
          "name": "",
          "type": "string"
        },
        {
          "internalType": "uint256",
          "name": "",
          "type": "uint256"
        },
        {
          "internalType": "bool",
          "name": "",
          "type": "bool"
        }
      ],
      "stateMutability": "view",
      "type": "function",
      "constant": true
    }
  ],
  "bytecode": "0x6080806040523461001f5760008055600060015561205b90816100258239f35b600080fdfe608080604052600436101561001357600080fd5b60003560e01c90816307973ccf14611c9e575080630a5cf04214611bea578063163f752214611ba85780631d2e4afd1461166057806353b628661461134357806362f14dd0146112195780636386c1c71461115c5780637acc0b20146110225780639c3bddb214610fa4578063a87430ba14610f0b578063b9db15b414610cad578063c6e5d8f614610ba7578063cf2c033414610b31578063e0f6ef8714610b13578063fd6f54b21461012c5763fece8772146100cf57600080fd5b34610127576040366003190112610127576100e8611cb9565b6001600160a01b03166000908152600460205260409020805460243591908210156101275760209161011991611f23565b90546040519160031b1c8152f35b600080fd5b3461012757610120366003190112610127576004356001600160401b0381116101275761015d903690600401611d5d565b6024356001600160401b0381116101275761017c903690600401611d5d565b906064356001600160401b0381116101275761019c903690600401611d5d565b6084356001600160401b038111610127576101bb903690600401611d5d565b60c435801515810361012757610104356001600160401b038111610127576101e7903690600401611d5d565b9133600052600360205261020560ff60046040600020015416611f4a565b33600052600360205260026040600020016040519081600082549261022984611e11565b9360018116908115610af25750600114610ab0575b50610252925003601f198101835282611d3c565b602081519101206040516020810190653330b936b2b960d11b82526006815261027a81611d21565b51902003610a605761028f60a4351515611f8c565b60e43515610a1b576102a2600054611f3b565b9384600055604051966102b488611d05565b85885286602089015260408801526044356060880152608087015260a08601523360c08601523360e086015260a435610100860152151561012085015260006101408501524261016085015260e4356101808501526101a0840152600052600260205260406000208251815560208301519283516001600160401b038111610638576103436001840154611e11565b601f81116109d4575b506020601f821160011461096557819293949560009261095a575b50508160011b916000199060031b1c19161760018301555b60408101519283516001600160401b038111610638576103a26002850154611e11565b601f8111610913575b506020601f82116001146108a4578192939495600092610899575b50508160011b916000199060031b1c19161760028401555b6060820151600384015560808201519283516001600160401b0381116106385761040b6004830154611e11565b601f8111610852575b506020601f82116001146107e35781929394956000926107d8575b50508160011b916000199060031b1c19161760048201555b60a08301519283516001600160401b0381116106385761046a6005840154611e11565b601f8111610791575b506020601f821160011461071d5781906101a0949596600092610712575b50508160011b916000199060031b1c19161760058401555b6006830160018060a01b03908160c084015116906bffffffffffffffffffffffff60a01b9182825416179055600785019160e084015116908254161790556101008101516008840155600983016105136101208301511515829060ff801983541691151516179055565b610140820151815461ff00191690151560081b61ff0016179055610160810151600a840155610180810151600b84015501518051906001600160401b03821161063857610563600c840154611e11565b601f81116106c7575b50602090601f831160011461065957600c92916000918361064e575b50508160011b916000199060031b1c1916179101555b336000526004602052604060002090600054825492600160401b84101561063857836105f09160017f5b750c34ff65e7500b4250ef0db18cf3a3f0d4ce3131ef7e64d457b0bea7236f96018155611f23565b819291549060031b91821b91600019901b19161790556000546106256040519283928352608060208401526080830190611dec565b33604083015260e43560608301520390a1005b634e487b7160e01b600052604160045260246000fd5b015190508580610588565b90601f19831691600c850160005260206000209260005b8181106106af5750916001939185600c969410610696575b505050811b0191015561059e565b015160001960f88460031b161c19169055858080610688565b92936020600181928786015181550195019301610670565b600c84016000526020600020601f840160051c81019160208510610708575b601f0160051c01905b8181106106fc575061056c565b600081556001016106ef565b90915081906106e6565b015190508680610491565b6005840160005260206000209560005b601f198416811061077957509582916101a0959697600194601f19811610610760575b505050811b0160058401556104a9565b015160001960f88460031b161c19169055868080610750565b8282015188556001909701966020928301920161072d565b600584016000526020600020601f830160051c8101602084106107d1575b601f830160051c820181106107c5575050610473565b600081556001016107af565b50806107af565b01519050858061042f565b6004830160005260206000209060005b601f198416811061083a575060019394959683601f19811610610821575b505050811b016004820155610447565b015160001960f88460031b161c19169055858080610811565b9091602060018192858b0151815501930191016107f3565b600483016000526020600020601f830160051c810160208410610892575b601f830160051c82018110610886575050610414565b60008155600101610870565b5080610870565b0151905085806103c6565b6002850160005260206000209060005b601f19841681106108fb575060019394959683601f198116106108e2575b505050811b0160028401556103de565b015160001960f88460031b161c191690558580806108d2565b9091602060018192858b0151815501930191016108b4565b600285016000526020600020601f830160051c810160208410610953575b601f830160051c820181106109475750506103ab565b60008155600101610931565b5080610931565b015190508580610367565b6001840160005260206000209060005b601f19841681106109bc575060019394959683601f198116106109a3575b505050811b01600183015561037f565b015160001960f88460031b161c19169055858080610993565b9091602060018192858b015181550193019101610975565b600184016000526020600020601f830160051c810160208410610a14575b601f830160051c82018110610a0857505061034c565b600081556001016109f2565b50806109f2565b60405162461bcd60e51b815260206004820152601f60248201527f5175616e74697479206d7573742062652067726561746572207468616e2030006044820152606490fd5b60405162461bcd60e51b815260206004820152602260248201527f4f6e6c79206661726d6572732063616e2072656769737465722070726f647563604482015261747360f01b6064820152608490fd5b9150506000528160206000206000905b838210610ad85750506020610252928201018a61023e565b602091925080600191548385880101520191018391610ac0565b90506020925061025294915060ff191682840152801515028201018a61023e565b34610127576000366003190112610127576020600054604051908152f35b3461012757604036600319011261012757610b4a611cb9565b6001600160a01b031660009081526005602052604090208054602435919082101561012757608091610b7b91611ef1565b508054906001810154906003600282015491015491604051938452602084015260408301526060820152f35b3461012757602080600319360112610127576001600160a01b03610bc9611cb9565b166000526005815260406000209081546001600160401b0381116106385760405190610bfa838260051b0183611d3c565b8082528282018094600052836000206000915b838310610c6d5760408051878152865181890181905289928201908960005b828110610c395784840385f35b8551805185528083015185840152604080820151908601526060908101519085015294810194608090930192600101610c2c565b600486600192604051610c7f81611cea565b8554815284860154838201526002860154604082015260038601546060820152815201920192019190610c0d565b346101275760203660031901126101275760606101a0604051610ccf81611d05565b600081528260208201528260408201526000838201528260808201528260a0820152600060c0820152600060e08201526000610100820152600061012082015260006101408201526000610160820152600061018082015201526004356000526002602052610f076040600020610e05600c60405192610d4e84611d05565b80548452610d5e60018201611e4b565b6020850152610d6f60028201611e4b565b604085015260038101546060850152610d8a60048201611e4b565b6080850152610d9b60058201611e4b565b60a085015260068101546001600160a01b0390811660c086015260078201541660e0850152600880820154610100860152600982015460ff8181161515610120880152911c161515610140850152600a810154610160850152600b81015461018085015201611e4b565b6101a082015260405191829160208352805160208401526101a0610e8f610e79610e59610e4360208601516101c060408a01526101e0890190611dec565b6040860151888203601f190160608a0152611dec565b606085015160808801526080850151601f198883030160a0890152611dec565b60a0840151868203601f190160c0880152611dec565b9160018060a01b0360c08201511660e086015260018060a01b0360e08201511661010086015261010081015161012086015261012081015115156101408601526101408101511515610160860152610160810151610180860152610180810151828601520151601f19848303016101c0850152611dec565b0390f35b34610127576020366003190112610127576001600160a01b0380610f2d611cb9565b166000526003602052604060002090815416610f4b60018301611e4b565b91610f5860028201611e4b565b610f9360ff600460038501549401541691610f85604051968796875260a0602088015260a0870190611dec565b908582036040870152611dec565b916060840152151560808301520390f35b34610127577f945c1c4e99aa89f648fbfe3df471b916f719e16d960fcec0737d4d56bd6968386040610fd536611db3565b816000526002602052610ff860018060a01b036007856000200154163314611fe5565b611003811515611f8c565b81600052600260205280600884600020015582519182526020820152a1005b34610127576020366003190112610127576004356000526002602052604060002080546001820161105290611e4b565b9161105f60028201611e4b565b6003820154909161107260048201611e4b565b9161107f60058301611e4b565b92600160a01b60019003938460068501541694600785015416600885015491600986015493600a87015495600b88015497600c016110bc90611e4b565b996040519c8d9c8d528c6101c06020819201528d016110da91611dec565b8c810360408e01526110eb91611dec565b9060608c01528a810360808c015261110291611dec565b89810360a08b015261111391611dec565b9560c089015260e088015261010087015260ff8116151561012087015260081c60ff1615156101408601526101608501526101808401528281036101a0840152610f0791611dec565b34610127576020366003190112610127576111fc6001600160a01b0380611181611cb9565b16600052600360205260406000206040519161119c83611ccf565b8154168252608061120a6111b260018401611e4b565b602085019081526111c560028501611e4b565b9485604082015260ff6004600387015496876060850152015416151593849101525193604051958695608087526080870190611dec565b908582036020870152611dec565b91604084015260608301520390f35b346101275761122736611db3565b9080600052600260205261124c60018060a01b03600760406000200154163314611fe5565b81156112fe57806000526002602052600b6040600020019081549283018093116112e8577febcfd4ce21b6aefd071d3e0f4bfa57e491b5308a1ffb5a3a8e4805e23f00b8d79260409255806000526002602052600b8260002060098101805460ff8160081c16806112dc575b6112ce575b5050015482519182526020820152a1005b61ff001916905585806112bd565b508383015415156112b8565b634e487b7160e01b600052601160045260246000fd5b60405162461bcd60e51b815260206004820152601960248201527f5175616e74697479206d75737420626520706f736974697665000000000000006044820152606490fd5b61134c36611db3565b336000526020916003835261136b60ff60046040600020015416611f4a565b80151580611654575b156116165780600052600283526040600020600981019081549160ff8360081c166115db57600b8201928354938685106115a35760078401546001600160a01b03169333851461155e576008015494878602958087048914901517156112e857853410611521576000948594859485946113ef8c8b96611fd8565b8091551561150f575b5050828215611506575bf1156114f1578034116114d2575b33600052600584526040600020926040519461142b86611cea565b83865280860194828652604087019684885260608101914283528054600160401b8110156106385761146291600182018155611ef1565b9290926114bc577f1996dfdf9a942c2ec8fc8b5da7010c303a8b65bc587a754469c06cdc0d09236f9860809860039351855551600185015551600284015551910155604051938452339084015260408301526060820152a1005b634e487b7160e01b600052600060045260246000fd5b60008080806114e18534611fd8565b8181156114fd575b3390f1611410575b6040513d6000823e3d90fd5b506108fc6114e9565b506108fc611402565b61ff0019166101001790558a806113f8565b60405162461bcd60e51b8152600481018a90526015602482015274125b9cdd59999a58da595b9d08115512081cd95b9d605a1b6044820152606490fd5b60405162461bcd60e51b8152600481018a9052601b60248201527f43616e6e6f742062757920796f7572206f776e2070726f6475637400000000006044820152606490fd5b60405162461bcd60e51b815260048101899052601060248201526f4e6f7420656e6f7567682073746f636b60801b6044820152606490fd5b60405162461bcd60e51b8152600481018790526013602482015272141c9bd91d58dd081a5cc81cdbdb19081bdd5d606a1b6044820152606490fd5b60405162461bcd60e51b8152600481018490526016602482015275141c9bd91d58dd08191bd95cc81b9bdd08195e1a5cdd60521b6044820152606490fd5b50600054811115611374565b34610127576040366003190112610127576004356001600160401b03811161012757611690903690600401611d5d565b6024356001600160401b038111610127576116af903690600401611d5d565b33600052600360205260ff60046040600020015416611b6357815115611b275760405160208101906116f960208285516116ec8187858a01611dc9565b8101038084520182611d3c565b5190206040516020810190653330b936b2b960d11b82526006815261171d81611d21565b5190208114908115611afa575b8115611ace575b5015611a9a5760405161174381611ccf565b33815260208101908382528260408201524260608201526001608082015233600052600360205260406000209160018060a01b038251166bffffffffffffffffffffffff60a01b845416178355518051906001600160401b0382116106385781906117b16001860154611e11565b601f8111611a47575b50602090601f83116001146119d5576000926119ca575b50508160011b916000199060031b1c19161760018301555b60408101518051906001600160401b0382116106385761180c6002850154611e11565b601f8111611983575b50602090601f83116001146118e15793600460806118d195856118c3999661189b967f92822564bab8864c3a47b34e8d23fbce5c46234eb5da261f94087b995ac0f33b9c9a6000926118d6575b50508160011b916000199060031b1c19161760028501555b606081015160038501550151151591019060ff801983541691151516179055565b6118a6600154611f3b565b600155604051938493338552606060208601526060850190611dec565b908382036040850152611dec565b0390a1005b015190508c80611862565b906002850160005260206000209160005b601f198516811061196b575060806118d19560018661189b967f92822564bab8864c3a47b34e8d23fbce5c46234eb5da261f94087b995ac0f33b9c9a966004966118c39d9a601f19811610611952575b505050811b01600285015561187a565b015160001960f88460031b161c191690558c8080611942565b919260206001819286850151815501940192016118f2565b600285016000526020600020601f840160051c8101602085106119c3575b601f830160051c820181106119b7575050611815565b600081556001016119a1565b50806119a1565b0151905086806117d1565b9250600185016000526020600020906000935b601f1984168510611a2c576001945083601f19811610611a13575b505050811b0160018301556117e9565b015160001960f88460031b161c19169055868080611a03565b818101518355602094850194600190930192909101906119e8565b909150600185016000526020600020601f840160051c810160208510611a93575b90849392915b601f830160051c82018110611a845750506117ba565b60008155859450600101611a6e565b5080611a68565b60405162461bcd60e51b815260206004820152600c60248201526b496e76616c696420726f6c6560a01b6044820152606490fd5b905060405160208101906430b236b4b760d91b825260058152611af081611d21565b5190201483611731565b9050604051602081019064313abcb2b960d91b825260058152611b1c81611d21565b51902081149061172a565b60405162461bcd60e51b81526020600482015260146024820152734e616d652063616e6e6f7420626520656d70747960601b6044820152606490fd5b60405162461bcd60e51b815260206004820152601760248201527f5573657220616c726561647920726567697374657265640000000000000000006044820152606490fd5b34610127576020366003190112610127576001600160a01b03611bc9611cb9565b166000526003602052602060ff600460406000200154166040519015158152f35b3461012757602080600319360112610127576001600160a01b03611c0c611cb9565b1660005260048152604060002060405190818382549182815201908192600052846000209060005b86828210611c8a578686611c4a82880383611d3c565b604051928392818401908285525180915260408401929160005b828110611c7357505050500390f35b835185528695509381019392810192600101611c64565b835485529093019260019283019201611c34565b34610127576000366003190112610127576020906001548152f35b600435906001600160a01b038216820361012757565b60a081019081106001600160401b0382111761063857604052565b608081019081106001600160401b0382111761063857604052565b6101c081019081106001600160401b0382111761063857604052565b604081019081106001600160401b0382111761063857604052565b90601f801991011681019081106001600160401b0382111761063857604052565b81601f82011215610127578035906001600160401b0382116106385760405192611d91601f8401601f191660200185611d3c565b8284526020838301011161012757816000926020809301838601378301015290565b6040906003190112610127576004359060243590565b60005b838110611ddc5750506000910152565b8181015183820152602001611dcc565b90602091611e0581518092818552858086019101611dc9565b601f01601f1916010190565b90600182811c92168015611e41575b6020831014611e2b57565b634e487b7160e01b600052602260045260246000fd5b91607f1691611e20565b9060405191826000825492611e5f84611e11565b908184526001948581169081600014611ece5750600114611e8b575b5050611e8992500383611d3c565b565b9093915060005260209081600020936000915b818310611eb6575050611e8993508201013880611e7b565b85548884018501529485019487945091830191611e9e565b915050611e8994506020925060ff191682840152151560051b8201013880611e7b565b8054821015611f0d5760005260206000209060021b0190600090565b634e487b7160e01b600052603260045260246000fd5b8054821015611f0d5760005260206000200190600090565b60001981146112e85760010190565b15611f5157565b60405162461bcd60e51b8152602060048201526013602482015272155cd95c881b9bdd081c9959da5cdd195c9959606a1b6044820152606490fd5b15611f9357565b60405162461bcd60e51b815260206004820152601c60248201527f5072696365206d7573742062652067726561746572207468616e2030000000006044820152606490fd5b919082039182116112e857565b15611fec57565b60405162461bcd60e51b81526020600482015260116024820152702737ba10383937b23ab1ba1037bbb732b960791b6044820152606490fdfea264697066735822122099a22116b092d88947495e44584dae74c24e46fbbfce3cb6df33d84e0712883664736f6c63430008130033",
  "immutableReferences": {},
  "source": "// SPDX-License-Identifier: MIT\r\npragma solidity ^0.8.19;\r\n\r\ncontract AgriculturalMarketplace {\r\n    // Struct sn phm nng sn\r\n    struct Product {\r\n        uint256 id;\r\n        string name;\r\n        string productType;\r\n        uint256 harvestDate;\r\n        string region;\r\n        string farmName;\r\n        address farmer;\r\n        address owner;      // Ngi ang gi quyn bn (thng l farmer)\r\n        uint256 price;      // GI TRN 1 N V (V d: 0.01 ETH / 1 kg)\r\n        bool isOrganic;\r\n        bool isSold;        // True nu quantity = 0\r\n        uint256 createdAt;\r\n        // [THM MI] Qun l tn kho\r\n        uint256 quantity;   // S lng cn li\r\n        string unit;        // n v (kg, tn, t...)\r\n    }\r\n\r\n    // Struct ngi dng\r\n    struct User {\r\n        address walletAddress;\r\n        string name;\r\n        string role; // \"farmer\", \"buyer\", \"admin\"\r\n        uint256 joinDate;\r\n        bool isRegistered;\r\n    }\r\n\r\n    // [THM MI] Struct lu lch s mua hng chi tit\r\n    struct Purchase {\r\n        uint256 productId;\r\n        uint256 quantity;\r\n        uint256 totalPrice;\r\n        uint256 timestamp;\r\n    }\r\n\r\n    uint256 public productCount = 0;\r\n    uint256 public userCount = 0;\r\n    \r\n    mapping(uint256 => Product) public products;\r\n    mapping(address => User) public users;\r\n    mapping(address => uint256[]) public farmerProducts;\r\n    \r\n    // [SA] Lu struct Purchase thay v ch ID sn phm\r\n    mapping(address => Purchase[]) public userPurchases;\r\n\r\n    event UserRegistered(address userAddress, string name, string role);\r\n    event ProductRegistered(uint256 productId, string name, address farmer, uint256 quantity);\r\n    event ProductSold(uint256 productId, address buyer, uint256 quantity, uint256 totalPrice);\r\n    event PriceUpdated(uint256 productId, uint256 newPrice);\r\n    event StockUpdated(uint256 productId, uint256 newQuantity);\r\n\r\n    modifier onlyRegistered() {\r\n        require(users[msg.sender].isRegistered, \"User not registered\");\r\n        _;\r\n    }\r\n\r\n    modifier onlyProductOwner(uint256 _productId) {\r\n        require(products[_productId].owner == msg.sender, \"Not product owner\");\r\n        _;\r\n    }\r\n\r\n    // ng k ngi dng\r\n    function registerUser(string memory _name, string memory _role) public {\r\n        require(!users[msg.sender].isRegistered, \"User already registered\");\r\n        require(bytes(_name).length > 0, \"Name cannot be empty\");\r\n        \r\n        // Validate Role\r\n        bytes32 roleHash = keccak256(abi.encodePacked(_role));\r\n        require(\r\n            roleHash == keccak256(abi.encodePacked(\"farmer\")) || \r\n            roleHash == keccak256(abi.encodePacked(\"buyer\")) ||\r\n            roleHash == keccak256(abi.encodePacked(\"admin\")), \r\n            \"Invalid role\"\r\n        );\r\n\r\n        users[msg.sender] = User({\r\n            walletAddress: msg.sender,\r\n            name: _name,\r\n            role: _role,\r\n            joinDate: block.timestamp,\r\n            isRegistered: true\r\n        });\r\n        userCount++;\r\n        emit UserRegistered(msg.sender, _name, _role);\r\n    }\r\n\r\n    // ng k sn phm (Thm quantity v unit)\r\n    function registerProduct(\r\n        string memory _name,\r\n        string memory _productType,\r\n        uint256 _harvestDate,\r\n        string memory _region,\r\n        string memory _farmName,\r\n        uint256 _pricePerUnit,\r\n        bool _isOrganic,\r\n        uint256 _quantity,\r\n        string memory _unit\r\n    ) public onlyRegistered {\r\n        require(keccak256(abi.encodePacked(users[msg.sender].role)) == keccak256(abi.encodePacked(\"farmer\")), \"Only farmers can register products\");\r\n        require(_pricePerUnit > 0, \"Price must be greater than 0\");\r\n        require(_quantity > 0, \"Quantity must be greater than 0\");\r\n\r\n        productCount++;\r\n        \r\n        products[productCount] = Product({\r\n            id: productCount,\r\n            name: _name,\r\n            productType: _productType,\r\n            harvestDate: _harvestDate,\r\n            region: _region,\r\n            farmName: _farmName,\r\n            farmer: msg.sender,\r\n            owner: msg.sender,\r\n            price: _pricePerUnit,\r\n            isOrganic: _isOrganic,\r\n            isSold: false,\r\n            createdAt: block.timestamp,\r\n            quantity: _quantity,\r\n            unit: _unit\r\n        });\r\n\r\n        farmerProducts[msg.sender].push(productCount);\r\n        emit ProductRegistered(productCount, _name, msg.sender, _quantity);\r\n    }\r\n\r\n    // [QUAN TRNG] Mua sn phm theo s lng\r\n    function buyProduct(uint256 _productId, uint256 _quantityToBuy) public payable onlyRegistered {\r\n        require(_productId > 0 && _productId <= productCount, \"Product does not exist\");\r\n        \r\n        Product storage product = products[_productId];\r\n        \r\n        require(!product.isSold, \"Product is sold out\");\r\n        require(product.quantity >= _quantityToBuy, \"Not enough stock\");\r\n        require(product.owner != msg.sender, \"Cannot buy your own product\");\r\n\r\n        // Tnh tng tin: Gi n v * S lng mua\r\n        uint256 totalCost = product.price * _quantityToBuy;\r\n        require(msg.value >= totalCost, \"Insufficient ETH sent\");\r\n\r\n        // 1. Tr kho\r\n        product.quantity = product.quantity - _quantityToBuy;\r\n\r\n        // 2. Nu ht hng -> nh du  bn ht\r\n        if (product.quantity == 0) {\r\n            product.isSold = true;\r\n        }\r\n\r\n        // 3. Chuyn tin cho ngi bn (Farmer)\r\n        payable(product.owner).transfer(totalCost);\r\n\r\n        // 4. Hon tin tha (nu c)\r\n        if (msg.value > totalCost) {\r\n            payable(msg.sender).transfer(msg.value - totalCost);\r\n        }\r\n\r\n        // 5. Lu lch s mua hng\r\n        userPurchases[msg.sender].push(Purchase({\r\n            productId: _productId,\r\n            quantity: _quantityToBuy,\r\n            totalPrice: totalCost,\r\n            timestamp: block.timestamp\r\n        }));\r\n\r\n        emit ProductSold(_productId, msg.sender, _quantityToBuy, totalCost);\r\n    }\r\n\r\n    // Cp nht s lng hng (Nhp thm hng)\r\n    function restockProduct(uint256 _productId, uint256 _addedQuantity) public onlyProductOwner(_productId) {\r\n        require(_addedQuantity > 0, \"Quantity must be positive\");\r\n        products[_productId].quantity += _addedQuantity;\r\n        \r\n        // Nu ang ht hng m nhp thm -> M bn li\r\n        if (products[_productId].isSold && products[_productId].quantity > 0) {\r\n            products[_productId].isSold = false;\r\n        }\r\n        \r\n        emit StockUpdated(_productId, products[_productId].quantity);\r\n    }\r\n\r\n    // Cp nht gi\r\n    function updateProductPrice(uint256 _productId, uint256 _newPrice) public onlyProductOwner(_productId) {\r\n        require(_newPrice > 0, \"Price must be greater than 0\");\r\n        products[_productId].price = _newPrice;\r\n        emit PriceUpdated(_productId, _newPrice);\r\n    }\r\n\r\n    // GETTERS\r\n    function getProduct(uint256 _productId) public view returns (Product memory) {\r\n        return products[_productId];\r\n    }\r\n\r\n    function getFarmerProducts(address _farmer) public view returns (uint256[] memory) {\r\n        return farmerProducts[_farmer];\r\n    }\r\n\r\n    // Ly danh sch mua hng chi tit (tr v mng Struct)\r\n    function getUserPurchases(address _user) public view returns (Purchase[] memory) {\r\n        return userPurchases[_user];\r\n    }\r\n\r\n    function isUserRegistered(address _user) public view returns (bool) {\r\n        return users[_user].isRegistered;\r\n    }\r\n    \r\n    function getUserInfo(address _user) public view returns (string memory, string memory, uint256, bool) {\r\n        User memory u = users[_user];\r\n        return (u.name, u.role, u.joinDate, u.isRegistered);\r\n    }\r\n}",
  "sourcePath": "D:\\nong-san-blockchain\\1-blockchain\\contracts\\Marketplace.sol",
  "compiler": {
    "name": "solc",
    "version": "0.8.19+commit.7dd6d404.Emscripten.clang"
  },
  "schemaVersion": "3.4.16",
  "updatedAt": "2025-11-13T10:28:05.434Z",
  "networkType": "ethereum",
  "devdoc": {
    "kind": "dev",
    "methods": {},
    "version": 1
  },
  "userdoc": {
    "kind": "user",
    "methods": {},
    "version": 1
  }
}