{
  "contractName": "AgriculturalMarketplace",
  "abi": [
    {
      "anonymous": false,
      "inputs": [
        {
          "indexed": false,
          "internalType": "uint256",
          "name": "productId",
          "type": "uint256"
        },
        {
          "indexed": false,
          "internalType": "uint256",
          "name": "newPrice",
          "type": "uint256"
        }
      ],
      "name": "PriceUpdated",
      "type": "event"
    },
    {
      "anonymous": false,
      "inputs": [
        {
          "indexed": false,
          "internalType": "uint256",
          "name": "productId",
          "type": "uint256"
        },
        {
          "indexed": false,
          "internalType": "string",
          "name": "name",
          "type": "string"
        },
        {
          "indexed": false,
          "internalType": "address",
          "name": "farmer",
          "type": "address"
        }
      ],
      "name": "ProductRegistered",
      "type": "event"
    },
    {
      "anonymous": false,
      "inputs": [
        {
          "indexed": false,
          "internalType": "uint256",
          "name": "productId",
          "type": "uint256"
        },
        {
          "indexed": false,
          "internalType": "address",
          "name": "buyer",
          "type": "address"
        },
        {
          "indexed": false,
          "internalType": "uint256",
          "name": "price",
          "type": "uint256"
        }
      ],
      "name": "ProductSold",
      "type": "event"
    },
    {
      "anonymous": false,
      "inputs": [
        {
          "indexed": false,
          "internalType": "address",
          "name": "userAddress",
          "type": "address"
        },
        {
          "indexed": false,
          "internalType": "string",
          "name": "name",
          "type": "string"
        },
        {
          "indexed": false,
          "internalType": "string",
          "name": "role",
          "type": "string"
        }
      ],
      "name": "UserRegistered",
      "type": "event"
    },
    {
      "inputs": [
        {
          "internalType": "address",
          "name": "",
          "type": "address"
        },
        {
          "internalType": "uint256",
          "name": "",
          "type": "uint256"
        }
      ],
      "name": "farmerProducts",
      "outputs": [
        {
          "internalType": "uint256",
          "name": "",
          "type": "uint256"
        }
      ],
      "stateMutability": "view",
      "type": "function",
      "constant": true
    },
    {
      "inputs": [],
      "name": "productCount",
      "outputs": [
        {
          "internalType": "uint256",
          "name": "",
          "type": "uint256"
        }
      ],
      "stateMutability": "view",
      "type": "function",
      "constant": true
    },
    {
      "inputs": [
        {
          "internalType": "uint256",
          "name": "",
          "type": "uint256"
        }
      ],
      "name": "products",
      "outputs": [
        {
          "internalType": "uint256",
          "name": "id",
          "type": "uint256"
        },
        {
          "internalType": "string",
          "name": "name",
          "type": "string"
        },
        {
          "internalType": "string",
          "name": "productType",
          "type": "string"
        },
        {
          "internalType": "uint256",
          "name": "harvestDate",
          "type": "uint256"
        },
        {
          "internalType": "string",
          "name": "region",
          "type": "string"
        },
        {
          "internalType": "string",
          "name": "farmName",
          "type": "string"
        },
        {
          "internalType": "address",
          "name": "farmer",
          "type": "address"
        },
        {
          "internalType": "address",
          "name": "owner",
          "type": "address"
        },
        {
          "internalType": "uint256",
          "name": "price",
          "type": "uint256"
        },
        {
          "internalType": "bool",
          "name": "isOrganic",
          "type": "bool"
        },
        {
          "internalType": "bool",
          "name": "isSold",
          "type": "bool"
        },
        {
          "internalType": "uint256",
          "name": "createdAt",
          "type": "uint256"
        }
      ],
      "stateMutability": "view",
      "type": "function",
      "constant": true
    },
    {
      "inputs": [],
      "name": "userCount",
      "outputs": [
        {
          "internalType": "uint256",
          "name": "",
          "type": "uint256"
        }
      ],
      "stateMutability": "view",
      "type": "function",
      "constant": true
    },
    {
      "inputs": [
        {
          "internalType": "address",
          "name": "",
          "type": "address"
        },
        {
          "internalType": "uint256",
          "name": "",
          "type": "uint256"
        }
      ],
      "name": "userPurchases",
      "outputs": [
        {
          "internalType": "uint256",
          "name": "",
          "type": "uint256"
        }
      ],
      "stateMutability": "view",
      "type": "function",
      "constant": true
    },
    {
      "inputs": [
        {
          "internalType": "address",
          "name": "",
          "type": "address"
        }
      ],
      "name": "users",
      "outputs": [
        {
          "internalType": "address",
          "name": "walletAddress",
          "type": "address"
        },
        {
          "internalType": "string",
          "name": "name",
          "type": "string"
        },
        {
          "internalType": "string",
          "name": "role",
          "type": "string"
        },
        {
          "internalType": "uint256",
          "name": "joinDate",
          "type": "uint256"
        },
        {
          "internalType": "bool",
          "name": "isRegistered",
          "type": "bool"
        }
      ],
      "stateMutability": "view",
      "type": "function",
      "constant": true
    },
    {
      "inputs": [
        {
          "internalType": "string",
          "name": "_name",
          "type": "string"
        },
        {
          "internalType": "string",
          "name": "_role",
          "type": "string"
        }
      ],
      "name": "registerUser",
      "outputs": [],
      "stateMutability": "nonpayable",
      "type": "function"
    },
    {
      "inputs": [
        {
          "internalType": "string",
          "name": "_name",
          "type": "string"
        },
        {
          "internalType": "string",
          "name": "_productType",
          "type": "string"
        },
        {
          "internalType": "uint256",
          "name": "_harvestDate",
          "type": "uint256"
        },
        {
          "internalType": "string",
          "name": "_region",
          "type": "string"
        },
        {
          "internalType": "string",
          "name": "_farmName",
          "type": "string"
        },
        {
          "internalType": "uint256",
          "name": "_price",
          "type": "uint256"
        },
        {
          "internalType": "bool",
          "name": "_isOrganic",
          "type": "bool"
        }
      ],
      "name": "registerProduct",
      "outputs": [],
      "stateMutability": "nonpayable",
      "type": "function"
    },
    {
      "inputs": [
        {
          "internalType": "uint256",
          "name": "_productId",
          "type": "uint256"
        }
      ],
      "name": "buyProduct",
      "outputs": [],
      "stateMutability": "payable",
      "type": "function",
      "payable": true
    },
    {
      "inputs": [
        {
          "internalType": "uint256",
          "name": "_productId",
          "type": "uint256"
        },
        {
          "internalType": "uint256",
          "name": "_newPrice",
          "type": "uint256"
        }
      ],
      "name": "updateProductPrice",
      "outputs": [],
      "stateMutability": "nonpayable",
      "type": "function"
    },
    {
      "inputs": [
        {
          "internalType": "uint256",
          "name": "_productId",
          "type": "uint256"
        }
      ],
      "name": "getProduct",
      "outputs": [
        {
          "internalType": "uint256",
          "name": "",
          "type": "uint256"
        },
        {
          "internalType": "string",
          "name": "",
          "type": "string"
        },
        {
          "internalType": "string",
          "name": "",
          "type": "string"
        },
        {
          "internalType": "uint256",
          "name": "",
          "type": "uint256"
        },
        {
          "internalType": "string",
          "name": "",
          "type": "string"
        },
        {
          "internalType": "string",
          "name": "",
          "type": "string"
        },
        {
          "internalType": "address",
          "name": "",
          "type": "address"
        },
        {
          "internalType": "address",
          "name": "",
          "type": "address"
        },
        {
          "internalType": "uint256",
          "name": "",
          "type": "uint256"
        },
        {
          "internalType": "bool",
          "name": "",
          "type": "bool"
        },
        {
          "internalType": "bool",
          "name": "",
          "type": "bool"
        },
        {
          "internalType": "uint256",
          "name": "",
          "type": "uint256"
        }
      ],
      "stateMutability": "view",
      "type": "function",
      "constant": true
    },
    {
      "inputs": [
        {
          "internalType": "address",
          "name": "_farmer",
          "type": "address"
        }
      ],
      "name": "getFarmerProducts",
      "outputs": [
        {
          "internalType": "uint256[]",
          "name": "",
          "type": "uint256[]"
        }
      ],
      "stateMutability": "view",
      "type": "function",
      "constant": true
    },
    {
      "inputs": [
        {
          "internalType": "address",
          "name": "_user",
          "type": "address"
        }
      ],
      "name": "getUserPurchases",
      "outputs": [
        {
          "internalType": "uint256[]",
          "name": "",
          "type": "uint256[]"
        }
      ],
      "stateMutability": "view",
      "type": "function",
      "constant": true
    },
    {
      "inputs": [
        {
          "internalType": "address",
          "name": "_user",
          "type": "address"
        }
      ],
      "name": "getUserInfo",
      "outputs": [
        {
          "internalType": "string",
          "name": "",
          "type": "string"
        },
        {
          "internalType": "string",
          "name": "",
          "type": "string"
        },
        {
          "internalType": "uint256",
          "name": "",
          "type": "uint256"
        },
        {
          "internalType": "bool",
          "name": "",
          "type": "bool"
        }
      ],
      "stateMutability": "view",
      "type": "function",
      "constant": true
    },
    {
      "inputs": [
        {
          "internalType": "address",
          "name": "_user",
          "type": "address"
        }
      ],
      "name": "isUserRegistered",
      "outputs": [
        {
          "internalType": "bool",
          "name": "",
          "type": "bool"
        }
      ],
      "stateMutability": "view",
      "type": "function",
      "constant": true
    }
  ],
  "bytecode": "0x608060405260008055600060015534801561001957600080fd5b50611f77806100296000396000f3fe6080604052600436106100e85760003560e01c80638642269e1161008a578063c6e5d8f611610059578063c6e5d8f6146102bd578063cf2c0334146102dd578063e0f6ef87146102fd578063fece87721461031357600080fd5b80638642269e146102395780639c3bddb21461024c578063a87430ba1461026c578063b9db15b41461029d57600080fd5b80631d2e4afd116100c65780631d2e4afd1461018f5780636386c1c7146101b15780636de3c8fc146101e15780637acc0b201461020157600080fd5b806307973ccf146100ed5780630a5cf04214610116578063163f752214610143575b600080fd5b3480156100f957600080fd5b5061010360015481565b6040519081526020015b60405180910390f35b34801561012257600080fd5b50610136610131366004611816565b610333565b60405161010d9190611838565b34801561014f57600080fd5b5061017f61015e366004611816565b6001600160a01b031660009081526003602052604090206004015460ff1690565b604051901515815260200161010d565b34801561019b57600080fd5b506101af6101aa36600461191f565b61039f565b005b3480156101bd57600080fd5b506101d16101cc366004611816565b61063d565b60405161010d94939291906119d3565b3480156101ed57600080fd5b506101af6101fc366004611a21565b6107dd565b34801561020d57600080fd5b5061022161021c366004611af2565b610b39565b60405161010d9c9b9a99989796959493929190611b0b565b6101af610247366004611af2565b610dc7565b34801561025857600080fd5b506101af610267366004611bb4565b61106c565b34801561027857600080fd5b5061028c610287366004611816565b611226565b60405161010d959493929190611bd6565b3480156102a957600080fd5b506102216102b8366004611af2565b611373565b3480156102c957600080fd5b506101366102d8366004611816565b611743565b3480156102e957600080fd5b506101036102f8366004611c26565b6117ad565b34801561030957600080fd5b5061010360005481565b34801561031f57600080fd5b5061010361032e366004611c26565b6117de565b6001600160a01b03811660009081526004602090815260409182902080548351818402810184019094528084526060939283018282801561039357602002820191906000526020600020905b81548152602001906001019080831161037f575b50505050509050919050565b3360009081526003602052604090206004015460ff16156104075760405162461bcd60e51b815260206004820152601760248201527f5573657220616c7265616479207265676973746572656400000000000000000060448201526064015b60405180910390fd5b600082511161044f5760405162461bcd60e51b81526020600482015260146024820152734e616d652063616e6e6f7420626520656d70747960601b60448201526064016103fe565b604051653330b936b2b960d11b6020820152602601604051602081830303815290604052805190602001208160405160200161048b9190611c50565b6040516020818303038152906040528051906020012014806104fb575060405164313abcb2b960d91b602082015260250160405160208183030381529060405280519060200120816040516020016104e39190611c50565b60405160208183030381529060405280519060200120145b6105475760405162461bcd60e51b815260206004820152601c60248201527f526f6c65206d757374206265206661726d6572206f722062757965720000000060448201526064016103fe565b6040805160a0810182523380825260208083018681528385018690524260608501526001608085018190526000938452600390925293909120825181546001600160a01b0319166001600160a01b039091161781559251919291908201906105af9082611cf5565b50604082015160028201906105c49082611cf5565b50606082015160038201556080909101516004909101805460ff1916911515919091179055600180549060006105f983611dcb565b91905055507f92822564bab8864c3a47b34e8d23fbce5c46234eb5da261f94087b995ac0f33b33838360405161063193929190611de4565b60405180910390a15050565b6001600160a01b038082166000908152600360209081526040808320815160a08101909252805490941681526001840180546060958695948594859490939184019161068890611c6c565b80601f01602080910402602001604051908101604052809291908181526020018280546106b490611c6c565b80156107015780601f106106d657610100808354040283529160200191610701565b820191906000526020600020905b8154815290600101906020018083116106e457829003601f168201915b5050505050815260200160028201805461071a90611c6c565b80601f016020809104026020016040519081016040528092919081815260200182805461074690611c6c565b80156107935780601f1061076857610100808354040283529160200191610793565b820191906000526020600020905b81548152906001019060200180831161077657829003601f168201915b5050509183525050600382015460208083019190915260049092015460ff161515604091820152908201519082015160608301516080909301519199909850919650945092505050565b3360009081526003602052604090206004015460ff1661080f5760405162461bcd60e51b81526004016103fe90611e24565b604051653330b936b2b960d11b602082015260260160408051601f1981840301815282825280516020918201203360009081526003835292909220919261085a926002019101611e51565b60405160208183030381529060405280519060200120146108c85760405162461bcd60e51b815260206004820152602260248201527f4f6e6c79206661726d6572732063616e2072656769737465722070726f647563604482015261747360f01b60648201526084016103fe565b600082116109185760405162461bcd60e51b815260206004820152601c60248201527f5072696365206d7573742062652067726561746572207468616e20300000000060448201526064016103fe565b60008751116109695760405162461bcd60e51b815260206004820152601c60248201527f50726f64756374206e616d652063616e6e6f7420626520656d7074790000000060448201526064016103fe565b60008054908061097883611dcb565b909155505060408051610180810182526000805480835260208084018c81528486018c9052606085018b9052608085018a905260a085018990523360c0860181905260e08601526101008501889052861515610120860152610140850184905242610160860152918352600290529290208151815591519091906001820190610a019082611cf5565b5060408201516002820190610a169082611cf5565b506060820151600382015560808201516004820190610a359082611cf5565b5060a08201516005820190610a4a9082611cf5565b5060c08201516006820180546001600160a01b039283166001600160a01b03199182161790915560e0840151600784018054919093169116179055610100808301516008830155610120830151600983018054610140860151151590930261ff00199215159290921661ffff199093169290921717905561016090910151600a90910155336000818152600460209081526040808320835481546001810183559185529284200191909155905490517fd810998a0248808a33b20218e71759cb2ec1a182b398350ad606d742587c012c92610b2892918b9190611ec7565b60405180910390a150505050505050565b60026020526000908152604090208054600182018054919291610b5b90611c6c565b80601f0160208091040260200160405190810160405280929190818152602001828054610b8790611c6c565b8015610bd45780601f10610ba957610100808354040283529160200191610bd4565b820191906000526020600020905b815481529060010190602001808311610bb757829003601f168201915b505050505090806002018054610be990611c6c565b80601f0160208091040260200160405190810160405280929190818152602001828054610c1590611c6c565b8015610c625780601f10610c3757610100808354040283529160200191610c62565b820191906000526020600020905b815481529060010190602001808311610c4557829003601f168201915b505050505090806003015490806004018054610c7d90611c6c565b80601f0160208091040260200160405190810160405280929190818152602001828054610ca990611c6c565b8015610cf65780601f10610ccb57610100808354040283529160200191610cf6565b820191906000526020600020905b815481529060010190602001808311610cd957829003601f168201915b505050505090806005018054610d0b90611c6c565b80601f0160208091040260200160405190810160405280929190818152602001828054610d3790611c6c565b8015610d845780601f10610d5957610100808354040283529160200191610d84565b820191906000526020600020905b815481529060010190602001808311610d6757829003601f168201915b5050506006840154600785015460088601546009870154600a9097015495966001600160a01b0393841696929093169450925060ff80831692610100900416908c565b3360009081526003602052604090206004015460ff16610df95760405162461bcd60e51b81526004016103fe90611e24565b6000818152600260205260409020600901548190610100900460ff1615610e595760405162461bcd60e51b8152602060048201526014602482015273141c9bd91d58dd08185b1c9958591e481cdbdb1960621b60448201526064016103fe565b600082118015610e6b57506000548211155b610e875760405162461bcd60e51b81526004016103fe90611ef8565b60008281526002602052604090206008810154341015610ee05760405162461bcd60e51b8152602060048201526014602482015273125b9cdd59999a58da595b9d081c185e5b595b9d60621b60448201526064016103fe565b6007810154336001600160a01b0390911603610f3e5760405162461bcd60e51b815260206004820152601b60248201527f43616e6e6f742062757920796f7572206f776e2070726f64756374000000000060448201526064016103fe565b6007810180546001600160a01b03198116331790915560098201805461ff00191661010017905560088201546040516001600160a01b0390921691829180156108fc02916000818181858888f19350505050158015610fa1573d6000803e3d6000fd5b508160080154341115610fed57600882015433906108fc90610fc39034611f28565b6040518115909202916000818181858888f19350505050158015610feb573d6000803e3d6000fd5b505b33600081815260056020908152604080832080546001810182559084529190922001869055600884015490517f31bb31d00bedecd9cb0a6f27507b6f5b268f069f24168aa35ae70c21c2e8d5ca9261105e928883526001600160a01b03919091166020830152604082015260600190565b60405180910390a150505050565b3360009081526003602052604090206004015460ff1661109e5760405162461bcd60e51b81526004016103fe90611e24565b60008281526002602052604090206007015482906001600160a01b031633146110fd5760405162461bcd60e51b81526020600482015260116024820152702737ba10383937b23ab1ba1037bbb732b960791b60448201526064016103fe565b6000838152600260205260409020600901548390610100900460ff161561115d5760405162461bcd60e51b8152602060048201526014602482015273141c9bd91d58dd08185b1c9958591e481cdbdb1960621b60448201526064016103fe565b60008411801561116f57506000548411155b61118b5760405162461bcd60e51b81526004016103fe90611ef8565b600083116111db5760405162461bcd60e51b815260206004820152601c60248201527f5072696365206d7573742062652067726561746572207468616e20300000000060448201526064016103fe565b60008481526002602090815260409182902060080185905581518681529081018590527f945c1c4e99aa89f648fbfe3df471b916f719e16d960fcec0737d4d56bd696838910161105e565b600360205260009081526040902080546001820180546001600160a01b03909216929161125290611c6c565b80601f016020809104026020016040519081016040528092919081815260200182805461127e90611c6c565b80156112cb5780601f106112a0576101008083540402835291602001916112cb565b820191906000526020600020905b8154815290600101906020018083116112ae57829003601f168201915b5050505050908060020180546112e090611c6c565b80601f016020809104026020016040519081016040528092919081815260200182805461130c90611c6c565b80156113595780601f1061132e57610100808354040283529160200191611359565b820191906000526020600020905b81548152906001019060200180831161133c57829003601f168201915b50505050600383015460049093015491929160ff16905085565b6000606080600060608060008060008060008060008d11801561139857506000548d11155b6113b45760405162461bcd60e51b81526004016103fe90611ef8565b6000600260008f815260200190815260200160002060405180610180016040529081600082015481526020016001820180546113ef90611c6c565b80601f016020809104026020016040519081016040528092919081815260200182805461141b90611c6c565b80156114685780601f1061143d57610100808354040283529160200191611468565b820191906000526020600020905b81548152906001019060200180831161144b57829003601f168201915b5050505050815260200160028201805461148190611c6c565b80601f01602080910402602001604051908101604052809291908181526020018280546114ad90611c6c565b80156114fa5780601f106114cf576101008083540402835291602001916114fa565b820191906000526020600020905b8154815290600101906020018083116114dd57829003601f168201915b505050505081526020016003820154815260200160048201805461151d90611c6c565b80601f016020809104026020016040519081016040528092919081815260200182805461154990611c6c565b80156115965780601f1061156b57610100808354040283529160200191611596565b820191906000526020600020905b81548152906001019060200180831161157957829003601f168201915b505050505081526020016005820180546115af90611c6c565b80601f01602080910402602001604051908101604052809291908181526020018280546115db90611c6c565b80156116285780601f106115fd57610100808354040283529160200191611628565b820191906000526020600020905b81548152906001019060200180831161160b57829003601f168201915b505050505081526020016006820160009054906101000a90046001600160a01b03166001600160a01b03166001600160a01b031681526020016007820160009054906101000a90046001600160a01b03166001600160a01b03166001600160a01b03168152602001600882015481526020016009820160009054906101000a900460ff161515151581526020016009820160019054906101000a900460ff16151515158152602001600a820154815250509050806000015181602001518260400151836060015184608001518560a001518660c001518760e001518861010001518961012001518a61014001518b61016001519c509c509c509c509c509c509c509c509c509c509c509c505091939597999b5091939597999b565b6001600160a01b038116600090815260056020908152604091829020805483518184028101840190945280845260609392830182828015610393576020028201919060005260206000209081548152602001906001019080831161037f5750505050509050919050565b600560205281600052604060002081815481106117c957600080fd5b90600052602060002001600091509150505481565b600460205281600052604060002081815481106117c957600080fd5b80356001600160a01b038116811461181157600080fd5b919050565b60006020828403121561182857600080fd5b611831826117fa565b9392505050565b6020808252825182820181905260009190848201906040850190845b8181101561187057835183529284019291840191600101611854565b50909695505050505050565b634e487b7160e01b600052604160045260246000fd5b600082601f8301126118a357600080fd5b813567ffffffffffffffff808211156118be576118be61187c565b604051601f8301601f19908116603f011681019082821181831017156118e6576118e661187c565b816040528381528660208588010111156118ff57600080fd5b836020870160208301376000602085830101528094505050505092915050565b6000806040838503121561193257600080fd5b823567ffffffffffffffff8082111561194a57600080fd5b61195686838701611892565b9350602085013591508082111561196c57600080fd5b5061197985828601611892565b9150509250929050565b60005b8381101561199e578181015183820152602001611986565b50506000910152565b600081518084526119bf816020860160208601611983565b601f01601f19169290920160200192915050565b6080815260006119e660808301876119a7565b82810360208401526119f881876119a7565b6040840195909552505090151560609091015292915050565b8035801515811461181157600080fd5b600080600080600080600060e0888a031215611a3c57600080fd5b873567ffffffffffffffff80821115611a5457600080fd5b611a608b838c01611892565b985060208a0135915080821115611a7657600080fd5b611a828b838c01611892565b975060408a0135965060608a0135915080821115611a9f57600080fd5b611aab8b838c01611892565b955060808a0135915080821115611ac157600080fd5b50611ace8a828b01611892565b93505060a08801359150611ae460c08901611a11565b905092959891949750929550565b600060208284031215611b0457600080fd5b5035919050565b60006101808e8352806020840152611b258184018f6119a7565b90508281036040840152611b39818e6119a7565b90508b60608401528281036080840152611b53818c6119a7565b905082810360a0840152611b67818b6119a7565b6001600160a01b038a811660c0860152891660e085015261010084018890528615156101208501529150611b989050565b92151561014082015261016001529a9950505050505050505050565b60008060408385031215611bc757600080fd5b50508035926020909101359150565b6001600160a01b038616815260a060208201819052600090611bfa908301876119a7565b8281036040840152611c0c81876119a7565b606084019590955250509015156080909101529392505050565b60008060408385031215611c3957600080fd5b611c42836117fa565b946020939093013593505050565b60008251611c62818460208701611983565b9190910192915050565b600181811c90821680611c8057607f821691505b602082108103611ca057634e487b7160e01b600052602260045260246000fd5b50919050565b601f821115611cf057600081815260208120601f850160051c81016020861015611ccd5750805b601f850160051c820191505b81811015611cec57828155600101611cd9565b5050505b505050565b815167ffffffffffffffff811115611d0f57611d0f61187c565b611d2381611d1d8454611c6c565b84611ca6565b602080601f831160018114611d585760008415611d405750858301515b600019600386901b1c1916600185901b178555611cec565b600085815260208120601f198616915b82811015611d8757888601518255948401946001909101908401611d68565b5085821015611da55787850151600019600388901b60f8161c191681555b5050505050600190811b01905550565b634e487b7160e01b600052601160045260246000fd5b600060018201611ddd57611ddd611db5565b5060010190565b6001600160a01b0384168152606060208201819052600090611e08908301856119a7565b8281036040840152611e1a81856119a7565b9695505050505050565b602080825260139082015272155cd95c881b9bdd081c9959da5cdd195c9959606a1b604082015260600190565b6000808354611e5f81611c6c565b60018281168015611e775760018114611e8c57611ebb565b60ff1984168752821515830287019450611ebb565b8760005260208060002060005b85811015611eb25781548a820152908401908201611e99565b50505082870194505b50929695505050505050565b838152606060208201526000611ee060608301856119a7565b905060018060a01b0383166040830152949350505050565b602080825260169082015275141c9bd91d58dd08191bd95cc81b9bdd08195e1a5cdd60521b604082015260600190565b81810381811115611f3b57611f3b611db5565b9291505056fea26469706673582212205139529f5cf1c73dfb88a3ec6d091867df52fcdcf4d302e446a2761b3f3210be64736f6c63430008130033",
  "immutableReferences": {},
  "source": "// SPDX-License-Identifier: MIT\r\npragma solidity ^0.8.19;\r\n\r\ncontract AgriculturalMarketplace {\r\n    // Struct sn phm nng sn\r\n    struct Product {\r\n        uint256 id;\r\n        string name;\r\n        string productType; // la, c ph, tiu, iu...\r\n        uint256 harvestDate;\r\n        string region; // vng trng\r\n        string farmName;\r\n        address farmer;\r\n        address owner;\r\n        uint256 price; // gi in wei\r\n        bool isOrganic;\r\n        bool isSold;\r\n        uint256 createdAt;\r\n    }\r\n\r\n    // Struct ngi dng\r\n    struct User {\r\n        address walletAddress;\r\n        string name;\r\n        string role; // \"farmer\", \"buyer\", \"admin\"\r\n        uint256 joinDate;\r\n        bool isRegistered;\r\n    }\r\n\r\n    // Bin state\r\n    uint256 public productCount = 0;\r\n    uint256 public userCount = 0;\r\n    \r\n    // Mappings\r\n    mapping(uint256 => Product) public products;\r\n    mapping(address => User) public users;\r\n    mapping(address => uint256[]) public farmerProducts;\r\n    mapping(address => uint256[]) public userPurchases;\r\n\r\n    // Events\r\n    event UserRegistered(address userAddress, string name, string role);\r\n    event ProductRegistered(uint256 productId, string name, address farmer);\r\n    event ProductSold(uint256 productId, address buyer, uint256 price);\r\n    event PriceUpdated(uint256 productId, uint256 newPrice);\r\n\r\n    // Modifiers\r\n    modifier onlyRegistered() {\r\n        require(users[msg.sender].isRegistered, \"User not registered\");\r\n        _;\r\n    }\r\n\r\n    modifier onlyProductOwner(uint256 _productId) {\r\n        require(products[_productId].owner == msg.sender, \"Not product owner\");\r\n        _;\r\n    }\r\n\r\n    modifier productNotSold(uint256 _productId) {\r\n        require(!products[_productId].isSold, \"Product already sold\");\r\n        _;\r\n    }\r\n\r\n    // ng k ngi dng\r\n    function registerUser(string memory _name, string memory _role) public {\r\n        require(!users[msg.sender].isRegistered, \"User already registered\");\r\n        \r\n        // [SA 1] Thm validation cho Tn\r\n        require(bytes(_name).length > 0, \"Name cannot be empty\");\r\n\r\n        require(\r\n            keccak256(abi.encodePacked(_role)) == keccak256(abi.encodePacked(\"farmer\")) ||\r\n            keccak256(abi.encodePacked(_role)) == keccak256(abi.encodePacked(\"buyer\")),\r\n            \"Role must be farmer or buyer\"\r\n        );\r\n\r\n        users[msg.sender] = User({\r\n            walletAddress: msg.sender,\r\n            name: _name,\r\n            role: _role,\r\n            joinDate: block.timestamp,\r\n            isRegistered: true\r\n        });\r\n        userCount++;\r\n\r\n        emit UserRegistered(msg.sender, _name, _role);\r\n    }\r\n\r\n    // ng k sn phm mi (ch farmer)\r\n    function registerProduct(\r\n        string memory _name,\r\n        string memory _productType,\r\n        uint256 _harvestDate,\r\n        string memory _region,\r\n        string memory _farmName,\r\n        uint256 _price,\r\n        bool _isOrganic\r\n    ) public onlyRegistered {\r\n        require(\r\n            keccak256(abi.encodePacked(users[msg.sender].role)) == keccak256(abi.encodePacked(\"farmer\")),\r\n            \"Only farmers can register products\"\r\n        );\r\n        \r\n        // [SA 2] Thm validation cho Gi v Tn\r\n        require(_price > 0, \"Price must be greater than 0\");\r\n        require(bytes(_name).length > 0, \"Product name cannot be empty\");\r\n\r\n        productCount++;\r\n        \r\n        products[productCount] = Product({\r\n            id: productCount,\r\n            name: _name,\r\n            productType: _productType,\r\n            harvestDate: _harvestDate,\r\n            region: _region,\r\n            farmName: _farmName,\r\n            farmer: msg.sender,\r\n            owner: msg.sender,\r\n            price: _price,\r\n            isOrganic: _isOrganic,\r\n            isSold: false,\r\n            createdAt: block.timestamp\r\n        });\r\n\r\n        farmerProducts[msg.sender].push(productCount);\r\n        \r\n        emit ProductRegistered(productCount, _name, msg.sender);\r\n    }\r\n\r\n    // Mua sn phm\r\n    function buyProduct(uint256 _productId) public payable onlyRegistered productNotSold(_productId) {\r\n        // [SA 3] Thm validation cho ID (RT QUAN TRNG)\r\n        require(_productId > 0 && _productId <= productCount, \"Product does not exist\");\r\n        \r\n        Product storage product = products[_productId];\r\n        require(msg.value >= product.price, \"Insufficient payment\");\r\n        require(product.owner != msg.sender, \"Cannot buy your own product\");\r\n\r\n        address previousOwner = product.owner;\r\n        product.owner = msg.sender;\r\n        product.isSold = true;\r\n\r\n        // Chuyn tin cho ngi bn\r\n        payable(previousOwner).transfer(product.price);\r\n        \r\n        // Hon li tin tha nu c\r\n        if (msg.value > product.price) {\r\n            payable(msg.sender).transfer(msg.value - product.price);\r\n        }\r\n\r\n        userPurchases[msg.sender].push(_productId);\r\n        emit ProductSold(_productId, msg.sender, product.price);\r\n    }\r\n\r\n    // Cp nht gi sn phm\r\n    function updateProductPrice(uint256 _productId, uint256 _newPrice) \r\n        public \r\n        onlyRegistered \r\n        onlyProductOwner(_productId) \r\n        productNotSold(_productId) \r\n    {\r\n        // [SA 4] Thm validation cho ID v Gi mi\r\n        require(_productId > 0 && _productId <= productCount, \"Product does not exist\");\r\n        require(_newPrice > 0, \"Price must be greater than 0\");\r\n\r\n        products[_productId].price = _newPrice;\r\n        emit PriceUpdated(_productId, _newPrice);\r\n    }\r\n\r\n    // Ly thng tin sn phm\r\n    function getProduct(uint256 _productId) public view returns (\r\n        uint256, string memory, string memory, uint256, string memory, \r\n        string memory, address, address, uint256, bool, bool, uint256\r\n    ) {\r\n        // Thm kim tra ID  y cng tt\r\n        require(_productId > 0 && _productId <= productCount, \"Product does not exist\");\r\n        \r\n        Product memory p = products[_productId];\r\n        return (\r\n            p.id, p.name, p.productType, p.harvestDate, p.region,\r\n            p.farmName, p.farmer, p.owner, p.price, p.isOrganic, \r\n        \tp.isSold, p.createdAt\r\n      \t);\r\n  \t}\r\n\r\n  \t// Ly sn phm ca farmer\r\n  \tfunction getFarmerProducts(address _farmer) public view returns (uint256[] memory) {\r\n      \treturn farmerProducts[_farmer];\r\n  \t}\r\n\r\n  \t// Ly sn phm  mua\r\n  \tfunction getUserPurchases(address _user) public view returns (uint256[] memory) {\r\n      \treturn userPurchases[_user];\r\n  \t}\r\n\r\n  \t// Ly thng tin user\r\n  \tfunction getUserInfo(address _user) public view returns (\r\n    \t  string memory, string memory, uint256, bool\r\n  \t) {\r\n      \tUser memory u = users[_user];\r\n      \treturn (u.name, u.role, u.joinDate, u.isRegistered);\r\n  \t}\r\n\r\n  \t// Kim tra user  ng k cha\r\n  \tfunction isUserRegistered(address _user) public view returns (bool) {\r\n      \treturn users[_user].isRegistered;\r\n  \t}\r\n}",
  "sourcePath": "D:\\nong-san-blockchain\\1-blockchain\\contracts\\Marketplace.sol",
  "compiler": {
    "name": "solc",
    "version": "0.8.19+commit.7dd6d404.Emscripten.clang"
  },
  "schemaVersion": "3.4.16",
  "updatedAt": "2025-11-13T00:00:56.799Z",
  "networkType": "ethereum",
  "devdoc": {
    "kind": "dev",
    "methods": {},
    "version": 1
  },
  "userdoc": {
    "kind": "user",
    "methods": {},
    "version": 1
  }
}